:0400000007EF00F016
:0A0008007D820BED08F008EF0CF00C
:10100000003738392F3435362A3132332D23303DED
:051010002B2569000022
:101016000600F2A811EF08F013EF08F01CEF08F035
:10102600F2A218EF08F01AEF08F01CEF08F037EC00
:101036000DF0F0A621EF08F023EF08F02CEF08F0F2
:10104600F0A028EF08F02AEF08F02CEF08F035ECB6
:101056000DF0F0A831EF08F033EF08F03CEF08F0A0
:10106600F0A238EF08F03AEF08F03CEF08F033EC66
:101076000DF0F2A641EF08F043EF08F05EEF08F03E
:10108600F2A048EF08F04AEF08F05EEF08F081A8FA
:101096004FEF08F051EF08F05EEF08F06004D8A4B7
:1010A60057EF08F059EF08F05EEF08F0000E606E9B
:1010B600000E00EC0DF0F2A663EF08F065EF08F005
:1010C60080EF08F0F2A06AEF08F06CEF08F080EF0E
:1010D60008F081B871EF08F073EF08F080EF08F0C0
:1010E6006050D8A479EF08F07BEF08F080EF08F0A5
:1010F600010E606E010E00EC0DF0F2A685EF08F011
:1011060087EF08F0A2EF08F0F2A08CEF08F08EEF60
:1011160008F0A2EF08F081AA93EF08F095EF08F027
:10112600A2EF08F05F04D8A49BEF08F09DEF08F04B
:10113600A2EF08F0000E5F6E000EF3EC0CF0F2A6C4
:10114600A7EF08F0A9EF08F0C4EF08F0F2A0AEEFA1
:1011560008F0B0EF08F0C4EF08F081BAB5EF08F078
:10116600B7EF08F0C4EF08F05F50D8A4BDEF08F061
:10117600BFEF08F0C4EF08F0010E5F6E010EF3EC4E
:101186000CF0F2A6C9EF08F0CBEF08F0E6EF08F096
:10119600F2A0D0EF08F0D2EF08F0E6EF08F081AC4D
:1011A600D7EF08F0D9EF08F0E6EF08F05E04D8A410
:1011B600DFEF08F0E1EF08F0E6EF08F0000E5E6EF4
:1011C600000EE6EC0CF0F2A6EBEF08F0EDEF08F0FF
:1011D60008EF09F0F2A0F2EF08F0F4EF08F008EFDC
:1011E60009F081BCF9EF08F0FBEF08F008EF09F011
:1011F6005E50D8A401EF09F003EF09F008EF09F0FB
:10120600010E5E6E010EE6EC0CF0F2A60DEF09F093
:101216000FEF09F02AEF09F0F2A014EF09F016EF2C
:1012260009F02AEF09F081AE1BEF09F01DEF09F076
:101236002AEF09F05D04D8A423EF09F025EF09F0A1
:101246002AEF09F0000E5D6E000ED9EC0CF0F2A646
:101256002FEF09F031EF09F04CEF09F0F2A036EF6D
:1012660009F038EF09F04CEF09F081BE3DEF09F0C7
:101276003FEF09F04CEF09F05D50D8A445EF09F0B7
:1012860047EF09F04CEF09F0010E5D6E010ED9EC47
:101296000CF09DAC51EF09F053EF09F05CEF09F04B
:1012A6009EAC58EF09F05AEF09F05CEF09F03DECFF
:1012B6000DF0F2AA61EF09F063EF09F06CEF09F0A7
:1012C600F2A468EF09F06AEF09F06CEF09F023EC7D
:1012D6000DF09DA071EF09F073EF09F07CEF09F0B6
:1012E6009EA078EF09F07AEF09F07CEF09F01DEC8B
:1012F6000DF09DA281EF09F083EF09F08CEF09F064
:101306009EA288EF09F08AEF09F08CEF09F029EC2C
:101316000DF0A0A291EF09F093EF09F09CEF09F010
:10132600A1A298EF09F09AEF09F09CEF09F017ECEB
:101336000DF09DA8A1EF09F0A3EF09F0ACEF09F0BD
:101346009EA8A8EF09F0AAEF09F0ACEF09F02DEC82
:101356000DF09DAAB1EF09F0B3EF09F0BCEF09F06B
:101366009EAAB8EF09F0BAEF09F0BCEF09F03FEC1E
:101376000DF09DA6C1EF09F0C3EF09F0CCEF09F01F
:101386009EA6C8EF09F0CAEF09F0CCEF09F02FECE2
:101396000DF0A0A6D1EF09F0D3EF09F0DCEF09F0CC
:1013A600A1A6D8EF09F0DAEF09F0DCEF09F031EC8D
:1013B6000DF09DA4E1EF09F0E3EF09F0ECEF09F081
:1013C6009EA4E8EF09F0EAEF09F0ECEF09F03BEC38
:1013D6000DF0A0A0F1EF09F0F3EF09F0FCEF09F032
:1013E600A1A0F8EF09F0FAEF09F0FCEF09F039ECEB
:1013F6000DF07D921100010E746E6C506D10D8B414
:1014060007EF0AF009EF0AF01AEF0AF06CC0D9FFED
:101416006DC0DAFFDF30E832E832070B6E6E070E7A
:101426006E6418EF0AF01AEF0AF07DEF0AF0000E6C
:10143600746E9EEF0AF06CC0D9FF6DC0DAFFDF3024
:10144600E832E832070B6E6E010E6F6E6E2A2EEFD3
:101456000AF0D8906F366E2E2CEF0AF06F50FF0A06
:10146600706E6CC0D9FF6DC0DAFFDF50070B716E6E
:101476007150020D530EF324D96E000EF420DA6E6D
:10148600DECF72F0DDCF73F072C0D9FF73C0DAFF22
:101496007050DF169EEF0AF06CC0D9FF6DC0DAFF00
:1014A600DF30E832E832070B6E6E010E6F6E6E2A81
:1014B6005FEF0AF0D8906F366E2E5DEF0AF06CC0C3
:1014C600D9FF6DC0DAFFDF50070B706E7050020D4A
:1014D600530EF324D96E000EF420DA6EDECF71F0CF
:1014E600DDCF72F071C0D9FF72C0DAFF6F50DF1224
:1014F6009EEF0AF06CC0D9FF6DC0DAFFDFBC86EF45
:101506000AF089EF0AF0010E8AEF0AF0000E6E6EFD
:101516006F6A6F50000AD8B493EF0AF01AEF0AF018
:101526006E50000AD8B41EEF0AF0010AD8B44FEF85
:101536000AF01AEF0AF074501200CCEC0CF0690EA7
:10154600766E000E776E56EC0CF0670E766E000E19
:10155600776E56EC0CF01F0E0001956F710E946FAE
:101566001E0EE82EFED7942FFCD7952FFAD700F043
:10157600690E766E000E776E79EC0CF0670E766E5D
:10158600000E776E79EC0CF01F0E0001956F710E50
:10159600946F1E0EE82EFED7942FFCD7952FFAD700
:1015A60000F0690E766E000E776E33EC0CF0670E67
:1015B600766E000E776E33EC0CF01F0E0001956F01
:1015C600710E946F1E0EE82EFED7942FFCD7952F22
:1015D600FAD700F0690E766E000E776E56EC0CF0B8
:1015E600670E766E000E776E79EC0CF01F0E00011A
:1015F600956F710E946F1E0EE82EFED7942FFCD7B2
:10160600952FFAD700F0690E766E000E776E33ECE2
:101616000CF0670E766E000E776E33EC0CF01F0E34
:101626000001956F710E946F1E0EE82EFED7942F53
:10163600FCD7952FFAD700F0690E766E000E776EFE
:1016460079EC0CF0670E766E000E776E56EC0CF0A9
:101656001F0E0001956F710E946F1E0EE82EFED7B9
:10166600942FFCD7952FFAD700F0A2EF0AF007EFD8
:1016760000F0010E756E6C506D10D8B445EF0BF08E
:1016860047EF0BF058EF0BF06CC0D9FF6DC0DAFFD7
:10169600DF30E832E832070B6F6E070E6F6456EFE5
:1016A6000BF058EF0BF0BBEF0BF0000E756ED0EFA2
:1016B6000BF06CC0D9FF6DC0DAFFDF30E832E832DC
:1016C600070B6F6E010E706E6F2A6CEF0BF0D890E1
:1016D60070366F2E6AEF0BF07050FF0A716E6CC099
:1016E600D9FF6DC0DAFFDF50070B726E7250020D24
:1016F600490EF324D96E000EF420DA6EDECF73F0B5
:10170600DDCF74F073C0D9FF74C0DAFF7150DF16F5
:10171600D0EF0BF06CC0D9FF6DC0DAFFDF30E832D6
:10172600E832070B6F6E010E706E6F2A9DEF0BF09D
:10173600D89070366F2E9BEF0BF06CC0D9FF6DC042
:10174600DAFFDF50070B716E7150020D490EF3245C
:10175600D96E000EF420DA6EDECF72F0DDCF73F0B4
:1017660072C0D9FF73C0DAFF7050DF12D0EF0BF0F2
:101776006E506F6E706A7050000AD8B4C5EF0BF0E9
:1017860058EF0BF06F50000AD8B45CEF0BF0010A6B
:10179600D8B48DEF0BF058EF0BF075501200765061
:1017A6007710D8B4D9EF0BF0DBEF0BF0ECEF0BF0C2
:1017B60076C0D9FF77C0DAFFDF30E832E832070BB0
:1017C600786E070E7864EAEF0BF0ECEF0BF0F0EFB3
:1017D6000BF0000E796E06EF0CF076C06CF077C059
:1017E6006DF0FEEC09F0796E76C06CF077C06DF0A6
:1017F60076C0D9FF77C0DAFF000EDFBE010E6E6E2F
:101806003CEC0BF0796E795012001A0EF66E1A0E39
:10181600F76E000EF86E00EE80F010EE14F0090080
:10182600F5CFEEFFE550E150FAE1760EF66E190EB1
:10183600F76E000EF86E00EE49F010EE22F0090089
:10184600F5CFEEFFE550E150FAE100EE01F0480E6B
:10185600EE6AE806FDE17D907D920001A0EF0AF0B8
:10186600010E786E76507710D8A43CEF0CF03EEF60
:101876000CF042EF0CF0000E786E54EF0CF076C0D0
:101886006CF077C06DF0000E6E6E3CEC0BF0010E46
:1018960076246C6E000E77206D6E000E6E6E3CEC3C
:1018A6000BF078501200010E786E76507710D8A49F
:1018B6005FEF0CF061EF0CF065EF0CF0000E786E48
:1018C60077EF0CF076C06CF077C06DF0010E6E6E9F
:1018D6003CEC0BF0010E76246C6E000E77206D6EDC
:1018E600000E6E6E3CEC0BF078501200010E786E16
:1018F60076507710D8A482EF0CF084EF0CF088EFC6
:101906000CF0000E786E9AEF0CF076C06CF077C093
:101916006DF0000E6E6E3CEC0BF0010E76246C6ED4
:10192600000E77206D6E010E6E6E3CEC0BF078505B
:101936001200010E7C6E7A507B10D8A4A5EF0CF035
:10194600A7EF0CF0ABEF0CF0000E7C6EB9EF0CF0CD
:101956007AC076F07BC077F0D2EC0BF0010E7A24D9
:10196600766E000E7B20776ED2EC0BF07C50120068
:10197600890F8A0F8B0F8C0F8D0F920F930F940F79
:10198600950F960F01010101020A121A222A121A54
:10199600020A690E7A6E000E7B6E9CEC0CF0670EE6
:1019A6007A6E000E7B6E9CEC0CF012006B6EF29061
:1019B6006B50D8A4E1EF0CF0E3EF0CF0E5EF0CF080
:1019C600E5EF0CF012006B6EF2906B50D8A4EEEFC0
:1019D6000CF0F0EF0CF0F2EF0CF0F2EF0CF012005E
:1019E6006B6EF2906B50D8A4FBEF0CF0FDEF0CF091
:1019F600FFEF0CF0FFEF0CF012006B6EF2906B50E5
:101A0600D8A408EF0DF00AEF0DF00CEF0DF00CEF77
:101A16000DF01200800F810F820F830F840F323A70
:101A2600030B131B232B333BA1921250B36E11C031
:101A3600B2FF12009E901850CF6E17C0CEFF120054
:101A4600F2941C50D76E1BC0D6FF12009E9241C066
:101A5600CCFF12009D9812009E961200A1961200CD
:101A6600F0921200F0901200F2921200A190120071
:0A1A76009E9412009E9C12001200C4
:020000040020DA
:08000000FFFFFFFFFFFFFFFF00
:020000040030CA
:0E000000FF020912FF8181FF0FC00FE00F40C9
:00000001FF
